{
  "_format": "hh-sol-artifact-1",
  "contractName": "LilaPoolsProvider",
  "sourceName": "contracts/LilaPoolsProvider.sol",
  "abi": [
    {
      "inputs": [],
      "stateMutability": "nonpayable",
      "type": "constructor"
    },
    {
      "inputs": [],
      "name": "EnforcedPause",
      "type": "error"
    },
    {
      "inputs": [],
      "name": "ExpectedPause",
      "type": "error"
    },
    {
      "inputs": [],
      "name": "InvalidInitialization",
      "type": "error"
    },
    {
      "inputs": [],
      "name": "NotInitializing",
      "type": "error"
    },
    {
      "inputs": [
        {
          "internalType": "address",
          "name": "owner",
          "type": "address"
        }
      ],
      "name": "OwnableInvalidOwner",
      "type": "error"
    },
    {
      "inputs": [
        {
          "internalType": "address",
          "name": "account",
          "type": "address"
        }
      ],
      "name": "OwnableUnauthorizedAccount",
      "type": "error"
    },
    {
      "inputs": [],
      "name": "ReentrancyGuardReentrantCall",
      "type": "error"
    },
    {
      "anonymous": false,
      "inputs": [
        {
          "indexed": false,
          "internalType": "address",
          "name": "owner",
          "type": "address"
        },
        {
          "indexed": false,
          "internalType": "address",
          "name": "asset",
          "type": "address"
        },
        {
          "indexed": false,
          "internalType": "uint256",
          "name": "amount",
          "type": "uint256"
        },
        {
          "indexed": false,
          "internalType": "uint256",
          "name": "tokenID",
          "type": "uint256"
        },
        {
          "indexed": false,
          "internalType": "uint256",
          "name": "poolId",
          "type": "uint256"
        }
      ],
      "name": "Deposit",
      "type": "event"
    },
    {
      "anonymous": false,
      "inputs": [
        {
          "indexed": false,
          "internalType": "uint64",
          "name": "version",
          "type": "uint64"
        }
      ],
      "name": "Initialized",
      "type": "event"
    },
    {
      "anonymous": false,
      "inputs": [
        {
          "indexed": true,
          "internalType": "address",
          "name": "previousOwner",
          "type": "address"
        },
        {
          "indexed": true,
          "internalType": "address",
          "name": "newOwner",
          "type": "address"
        }
      ],
      "name": "OwnershipTransferred",
      "type": "event"
    },
    {
      "anonymous": false,
      "inputs": [
        {
          "indexed": false,
          "internalType": "address",
          "name": "account",
          "type": "address"
        }
      ],
      "name": "Paused",
      "type": "event"
    },
    {
      "anonymous": false,
      "inputs": [
        {
          "indexed": false,
          "internalType": "uint256",
          "name": "index",
          "type": "uint256"
        }
      ],
      "name": "PoolRemoved",
      "type": "event"
    },
    {
      "anonymous": false,
      "inputs": [
        {
          "indexed": false,
          "internalType": "uint256",
          "name": "index",
          "type": "uint256"
        },
        {
          "indexed": false,
          "internalType": "uint256",
          "name": "maxAmount",
          "type": "uint256"
        },
        {
          "indexed": false,
          "internalType": "address",
          "name": "strategy",
          "type": "address"
        },
        {
          "indexed": false,
          "internalType": "address",
          "name": "asset",
          "type": "address"
        },
        {
          "indexed": false,
          "internalType": "uint64",
          "name": "frequency",
          "type": "uint64"
        },
        {
          "indexed": false,
          "internalType": "uint32",
          "name": "totalPayments",
          "type": "uint32"
        },
        {
          "indexed": false,
          "internalType": "uint32",
          "name": "rateIndex",
          "type": "uint32"
        }
      ],
      "name": "PoolUpdated",
      "type": "event"
    },
    {
      "anonymous": false,
      "inputs": [
        {
          "indexed": false,
          "internalType": "uint256",
          "name": "tokenID",
          "type": "uint256"
        },
        {
          "indexed": false,
          "internalType": "uint256",
          "name": "reward",
          "type": "uint256"
        },
        {
          "indexed": false,
          "internalType": "uint256",
          "name": "claimedPayments",
          "type": "uint256"
        },
        {
          "indexed": false,
          "internalType": "address",
          "name": "who",
          "type": "address"
        }
      ],
      "name": "RewardClaimed",
      "type": "event"
    },
    {
      "anonymous": false,
      "inputs": [
        {
          "indexed": false,
          "internalType": "address",
          "name": "account",
          "type": "address"
        }
      ],
      "name": "Unpaused",
      "type": "event"
    },
    {
      "anonymous": false,
      "inputs": [
        {
          "indexed": false,
          "internalType": "uint256",
          "name": "tokenID",
          "type": "uint256"
        }
      ],
      "name": "Withdrawal",
      "type": "event"
    },
    {
      "inputs": [
        {
          "internalType": "uint256",
          "name": "_maxAmount",
          "type": "uint256"
        },
        {
          "internalType": "address",
          "name": "_strategy",
          "type": "address"
        },
        {
          "internalType": "uint64",
          "name": "_frequency",
          "type": "uint64"
        },
        {
          "internalType": "uint32",
          "name": "_totalPayments",
          "type": "uint32"
        },
        {
          "internalType": "uint32",
          "name": "_rateIndex",
          "type": "uint32"
        }
      ],
      "name": "addPool",
      "outputs": [],
      "stateMutability": "nonpayable",
      "type": "function"
    },
    {
      "inputs": [
        {
          "internalType": "uint256[]",
          "name": "tokenIds",
          "type": "uint256[]"
        }
      ],
      "name": "batchWithdraw",
      "outputs": [],
      "stateMutability": "nonpayable",
      "type": "function"
    },
    {
      "inputs": [
        {
          "internalType": "uint256",
          "name": "amount",
          "type": "uint256"
        },
        {
          "internalType": "uint32",
          "name": "poolId",
          "type": "uint32"
        },
        {
          "internalType": "uint256",
          "name": "deadline",
          "type": "uint256"
        },
        {
          "internalType": "uint8",
          "name": "v",
          "type": "uint8"
        },
        {
          "internalType": "bytes32",
          "name": "r",
          "type": "bytes32"
        },
        {
          "internalType": "bytes32",
          "name": "s",
          "type": "bytes32"
        }
      ],
      "name": "deposit",
      "outputs": [],
      "stateMutability": "nonpayable",
      "type": "function"
    },
    {
      "inputs": [],
      "name": "emergencyWithdrawFee",
      "outputs": [
        {
          "internalType": "uint256",
          "name": "",
          "type": "uint256"
        }
      ],
      "stateMutability": "view",
      "type": "function"
    },
    {
      "inputs": [
        {
          "internalType": "contract ILilaOracle",
          "name": "_lilaOracle",
          "type": "address"
        },
        {
          "internalType": "contract ILilaPosition",
          "name": "_lilaPosition",
          "type": "address"
        },
        {
          "internalType": "address",
          "name": "_treasury",
          "type": "address"
        }
      ],
      "name": "initialize",
      "outputs": [],
      "stateMutability": "nonpayable",
      "type": "function"
    },
    {
      "inputs": [],
      "name": "lilaPosition",
      "outputs": [
        {
          "internalType": "contract ILilaPosition",
          "name": "",
          "type": "address"
        }
      ],
      "stateMutability": "view",
      "type": "function"
    },
    {
      "inputs": [],
      "name": "owner",
      "outputs": [
        {
          "internalType": "address",
          "name": "",
          "type": "address"
        }
      ],
      "stateMutability": "view",
      "type": "function"
    },
    {
      "inputs": [],
      "name": "paused",
      "outputs": [
        {
          "internalType": "bool",
          "name": "",
          "type": "bool"
        }
      ],
      "stateMutability": "view",
      "type": "function"
    },
    {
      "inputs": [],
      "name": "poolLength",
      "outputs": [
        {
          "internalType": "uint256",
          "name": "",
          "type": "uint256"
        }
      ],
      "stateMutability": "view",
      "type": "function"
    },
    {
      "inputs": [
        {
          "internalType": "uint256",
          "name": "",
          "type": "uint256"
        }
      ],
      "name": "poolList",
      "outputs": [
        {
          "internalType": "uint256",
          "name": "maxAmount",
          "type": "uint256"
        },
        {
          "internalType": "address",
          "name": "strategy",
          "type": "address"
        },
        {
          "internalType": "address",
          "name": "asset",
          "type": "address"
        },
        {
          "internalType": "uint64",
          "name": "payoutFrequency",
          "type": "uint64"
        },
        {
          "internalType": "uint32",
          "name": "totalPayments",
          "type": "uint32"
        },
        {
          "internalType": "uint32",
          "name": "rateIndex",
          "type": "uint32"
        }
      ],
      "stateMutability": "view",
      "type": "function"
    },
    {
      "inputs": [
        {
          "internalType": "uint32",
          "name": "_index",
          "type": "uint32"
        }
      ],
      "name": "removePool",
      "outputs": [],
      "stateMutability": "nonpayable",
      "type": "function"
    },
    {
      "inputs": [],
      "name": "renounceOwnership",
      "outputs": [],
      "stateMutability": "nonpayable",
      "type": "function"
    },
    {
      "inputs": [],
      "name": "togglePaused",
      "outputs": [],
      "stateMutability": "nonpayable",
      "type": "function"
    },
    {
      "inputs": [
        {
          "internalType": "address",
          "name": "newOwner",
          "type": "address"
        }
      ],
      "name": "transferOwnership",
      "outputs": [],
      "stateMutability": "nonpayable",
      "type": "function"
    },
    {
      "inputs": [],
      "name": "treasury",
      "outputs": [
        {
          "internalType": "address",
          "name": "",
          "type": "address"
        }
      ],
      "stateMutability": "view",
      "type": "function"
    },
    {
      "inputs": [
        {
          "internalType": "uint256",
          "name": "_fee",
          "type": "uint256"
        }
      ],
      "name": "updateEmergencyFee",
      "outputs": [],
      "stateMutability": "nonpayable",
      "type": "function"
    },
    {
      "inputs": [
        {
          "internalType": "uint32",
          "name": "_index",
          "type": "uint32"
        },
        {
          "internalType": "uint256",
          "name": "_maxAmount",
          "type": "uint256"
        },
        {
          "internalType": "address",
          "name": "_strategy",
          "type": "address"
        },
        {
          "internalType": "uint64",
          "name": "_frequency",
          "type": "uint64"
        },
        {
          "internalType": "uint32",
          "name": "_totalPayments",
          "type": "uint32"
        },
        {
          "internalType": "uint32",
          "name": "_rateIndex",
          "type": "uint32"
        }
      ],
      "name": "updatePool",
      "outputs": [],
      "stateMutability": "nonpayable",
      "type": "function"
    },
    {
      "inputs": [
        {
          "internalType": "uint256",
          "name": "tokenId",
          "type": "uint256"
        }
      ],
      "name": "withdraw",
      "outputs": [],
      "stateMutability": "nonpayable",
      "type": "function"
    }
  ],
  "bytecode": "0x60806040523480156200001157600080fd5b50620000226200002860201b60201c565b6200019c565b60006200003a6200013260201b60201c565b90508060000160089054906101000a900460ff161562000086576040517ff92ee8a900000000000000000000000000000000000000000000000000000000815260040160405180910390fd5b67ffffffffffffffff80168160000160009054906101000a900467ffffffffffffffff1667ffffffffffffffff16146200012f5767ffffffffffffffff8160000160006101000a81548167ffffffffffffffff021916908367ffffffffffffffff1602179055507fc7f505b2f371ae2175ee4913f4499e1f2633a7b5936321eed1cdaeb6115181d267ffffffffffffffff6040516200012691906200017f565b60405180910390a15b50565b60007ff0c57e16840df040f15088dc2f81fe391c3923bec73e23a9662efc9c229c6a00905090565b600067ffffffffffffffff82169050919050565b62000179816200015a565b82525050565b60006020820190506200019660008301846200016e565b92915050565b613dea80620001ac6000396000f3fe608060405234801561001057600080fd5b50600436106101165760003560e01c806372589d84116100a2578063d98fb0fb11610071578063d98fb0fb14610288578063ddda7ceb146102a4578063ee5fabb6146102c0578063f06b112e146102dc578063f2fde38b146102f857610116565b806372589d841461021457806372e55399146102325780638da5cb5b1461024e578063c0c53b8b1461026c57610116565b806336566f06116100e957806336566f06146101a65780633c1108e0146101b05780635c975abb146101ce57806361d027b3146101ec578063715018a61461020a57610116565b8063081e3eda1461011b578063082f436a146101395780632a48235b146101555780632e1a7d4d1461018a575b600080fd5b610123610314565b60405161013091906126ae565b60405180910390f35b610153600480360381019061014e91906127e3565b610320565b005b61016f600480360381019061016a919061285e565b6105a8565b604051610181969594939291906128b8565b60405180910390f35b6101a4600480360381019061019f919061285e565b610668565b005b6101ae610684565b005b6101b86106b1565b6040516101c591906126ae565b60405180910390f35b6101d66106b7565b6040516101e39190612934565b60405180910390f35b6101f46106dc565b604051610201919061294f565b60405180910390f35b610212610702565b005b61021c610716565b60405161022991906129c9565b60405180910390f35b61024c60048036038101906102479190612b3d565b61073c565b005b6102566107dd565b604051610263919061294f565b60405180910390f35b61028660048036038101906102819190612c02565b610815565b005b6102a2600480360381019061029d919061285e565b610a80565b005b6102be60048036038101906102b99190612cc4565b610a92565b005b6102da60048036038101906102d59190612d51565b610f5c565b005b6102f660048036038101906102f19190612dde565b61121f565b005b610312600480360381019061030d9190612e0b565b611378565b005b60008080549050905090565b6103286113fe565b60008473ffffffffffffffffffffffffffffffffffffffff1663fc0c546a6040518163ffffffff1660e01b8152600401602060405180830381865afa158015610375573d6000803e3d6000fd5b505050506040513d601f19601f820116820180604052508101906103999190612e76565b905060006040518060c001604052808881526020018773ffffffffffffffffffffffffffffffffffffffff1681526020018373ffffffffffffffffffffffffffffffffffffffff1681526020018667ffffffffffffffff1681526020018563ffffffff1681526020018463ffffffff1681525090806001815401808255809150506001900390600052602060002090600402016000909190919091506000820151816000015560208201518160010160006101000a81548173ffffffffffffffffffffffffffffffffffffffff021916908373ffffffffffffffffffffffffffffffffffffffff16021790555060408201518160020160006101000a81548173ffffffffffffffffffffffffffffffffffffffff021916908373ffffffffffffffffffffffffffffffffffffffff16021790555060608201518160020160146101000a81548167ffffffffffffffff021916908367ffffffffffffffff160217905550608082015181600201601c6101000a81548163ffffffff021916908363ffffffff16021790555060a08201518160030160006101000a81548163ffffffff021916908363ffffffff16021790555050507f317cc4469b62e4db59896af5dcc72ae612b815eecda5d01330bbe9f8aee92b78600160008054905061057f9190612ed2565b8787848888886040516105989796959493929190612f06565b60405180910390a1505050505050565b600081815481106105b857600080fd5b90600052602060002090600402016000915090508060000154908060010160009054906101000a900473ffffffffffffffffffffffffffffffffffffffff16908060020160009054906101000a900473ffffffffffffffffffffffffffffffffffffffff16908060020160149054906101000a900467ffffffffffffffff169080600201601c9054906101000a900463ffffffff16908060030160009054906101000a900463ffffffff16905086565b610670611485565b610679816114dc565b610681611d5a565b50565b61068c6113fe565b6106946106b7565b156106a6576106a1611d73565b6106af565b6106ae611de5565b5b565b60035481565b6000806106c2611e57565b90508060000160009054906101000a900460ff1691505090565b600460009054906101000a900473ffffffffffffffffffffffffffffffffffffffff1681565b61070a6113fe565b6107146000611e7f565b565b600260009054906101000a900473ffffffffffffffffffffffffffffffffffffffff1681565b610744611485565b600881511115610789576040517f08c379a000000000000000000000000000000000000000000000000000000000815260040161078090612ff8565b60405180910390fd5b60005b81518110156107d15760008282815181106107aa576107a9613018565b5b602002602001015190506107bd81610668565b5080806107c990613047565b91505061078c565b506107da611d5a565b50565b6000806107e8611f56565b90508060000160009054906101000a900473ffffffffffffffffffffffffffffffffffffffff1691505090565b600061081f611f7e565b905060008160000160089054906101000a900460ff1615905060008260000160009054906101000a900467ffffffffffffffff1690506000808267ffffffffffffffff1614801561086d5750825b9050600060018367ffffffffffffffff161480156108a2575060003073ffffffffffffffffffffffffffffffffffffffff163b145b9050811580156108b0575080155b156108e7576040517ff92ee8a900000000000000000000000000000000000000000000000000000000815260040160405180910390fd5b60018560000160006101000a81548167ffffffffffffffff021916908367ffffffffffffffff16021790555083156109375760018560000160086101000a81548160ff0219169083151502179055505b61093f611fa6565b610947611fb8565b610957610952611fca565b611fd2565b87600160006101000a81548173ffffffffffffffffffffffffffffffffffffffff021916908373ffffffffffffffffffffffffffffffffffffffff16021790555086600260006101000a81548173ffffffffffffffffffffffffffffffffffffffff021916908373ffffffffffffffffffffffffffffffffffffffff16021790555085600460006101000a81548173ffffffffffffffffffffffffffffffffffffffff021916908373ffffffffffffffffffffffffffffffffffffffff1602179055508315610a765760008560000160086101000a81548160ff0219169083151502179055507fc7f505b2f371ae2175ee4913f4499e1f2633a7b5936321eed1cdaeb6115181d26001604051610a6d91906130ca565b60405180910390a15b5050505050505050565b610a886113fe565b8060038190555050565b610a9a611fe6565b610aa2611485565b6000808663ffffffff1681548110610abd57610abc613018565b5b90600052602060002090600402019050600087118015610ae1575080600001548711155b610b20576040517f08c379a0000000000000000000000000000000000000000000000000000000008152600401610b1790613157565b60405180910390fd5b60008160020160009054906101000a900473ffffffffffffffffffffffffffffffffffffffff1690508160020160009054906101000a900473ffffffffffffffffffffffffffffffffffffffff1673ffffffffffffffffffffffffffffffffffffffff1663d505accf610b91611fca565b308b8a8a8a8a6040518863ffffffff1660e01b8152600401610bb99796959493929190613195565b600060405180830381600087803b158015610bd357600080fd5b505af1158015610be7573d6000803e3d6000fd5b50505050878173ffffffffffffffffffffffffffffffffffffffff1663dd62ed3e610c10611fca565b306040518363ffffffff1660e01b8152600401610c2e929190613204565b602060405180830381865afa158015610c4b573d6000803e3d6000fd5b505050506040513d601f19601f82011682018060405250810190610c6f9190613242565b1015610c7a57600080fd5b610cae610c85611fca565b308a8473ffffffffffffffffffffffffffffffffffffffff16612027909392919063ffffffff16565b87826000016000828254610cc29190612ed2565b9250508190555060006040518060a001604052808a81526020018963ffffffff1681526020014267ffffffffffffffff168152602001600067ffffffffffffffff1681526020018460030160009054906101000a900463ffffffff1663ffffffff1681525090506000600260009054906101000a900473ffffffffffffffffffffffffffffffffffffffff1673ffffffffffffffffffffffffffffffffffffffff16637e2ce668610d71611fca565b846040518363ffffffff1660e01b8152600401610d8f929190613304565b6020604051808303816000875af1158015610dae573d6000803e3d6000fd5b505050506040513d601f19601f82011682018060405250810190610dd29190613242565b90507f4e2ca0515ed1aef1395f66b5303bb5d6f1bf9d61a353fa53f73f8ac9973fa9f6610dfd611fca565b848c848d604051610e1295949392919061335e565b60405180910390a1610e9060008a63ffffffff1681548110610e3757610e36613018565b5b906000526020600020906004020160010160009054906101000a900473ffffffffffffffffffffffffffffffffffffffff168b8573ffffffffffffffffffffffffffffffffffffffff166120b09092919063ffffffff16565b60008963ffffffff1681548110610eaa57610ea9613018565b5b906000526020600020906004020160010160009054906101000a900473ffffffffffffffffffffffffffffffffffffffff1673ffffffffffffffffffffffffffffffffffffffff1663e2bbb1588b836040518363ffffffff1660e01b8152600401610f169291906133b1565b600060405180830381600087803b158015610f3057600080fd5b505af1158015610f44573d6000803e3d6000fd5b5050505050505050610f54611d5a565b505050505050565b610f646113fe565b6000805490508663ffffffff1610610fb1576040517f08c379a0000000000000000000000000000000000000000000000000000000008152600401610fa890613426565b60405180910390fd5b60008473ffffffffffffffffffffffffffffffffffffffff1663fc0c546a6040518163ffffffff1660e01b8152600401602060405180830381865afa158015610ffe573d6000803e3d6000fd5b505050506040513d601f19601f820116820180604052508101906110229190612e76565b90506040518060c001604052808781526020018673ffffffffffffffffffffffffffffffffffffffff1681526020018273ffffffffffffffffffffffffffffffffffffffff1681526020018567ffffffffffffffff1681526020018463ffffffff1681526020018363ffffffff1681525060008863ffffffff16815481106110ad576110ac613018565b5b90600052602060002090600402016000820151816000015560208201518160010160006101000a81548173ffffffffffffffffffffffffffffffffffffffff021916908373ffffffffffffffffffffffffffffffffffffffff16021790555060408201518160020160006101000a81548173ffffffffffffffffffffffffffffffffffffffff021916908373ffffffffffffffffffffffffffffffffffffffff16021790555060608201518160020160146101000a81548167ffffffffffffffff021916908367ffffffffffffffff160217905550608082015181600201601c6101000a81548163ffffffff021916908363ffffffff16021790555060a08201518160030160006101000a81548163ffffffff021916908363ffffffff1602179055509050507f317cc4469b62e4db59896af5dcc72ae612b815eecda5d01330bbe9f8aee92b788787878488888860405161120e9796959493929190613446565b60405180910390a150505050505050565b6112276113fe565b6000805490508163ffffffff1610611274576040517f08c379a000000000000000000000000000000000000000000000000000000000815260040161126b90613426565b60405180910390fd5b60008163ffffffff168154811061128e5761128d613018565b5b90600052602060002090600402016000808201600090556001820160006101000a81549073ffffffffffffffffffffffffffffffffffffffff02191690556002820160006101000a81549073ffffffffffffffffffffffffffffffffffffffff02191690556002820160146101000a81549067ffffffffffffffff021916905560028201601c6101000a81549063ffffffff02191690556003820160006101000a81549063ffffffff021916905550507f35ab5a1a55463270dd163e40e2dc7065e80802432f9a2044222f018979ff36268160405161136d91906134b5565b60405180910390a150565b6113806113fe565b600073ffffffffffffffffffffffffffffffffffffffff168173ffffffffffffffffffffffffffffffffffffffff16036113f25760006040517f1e4fbdf70000000000000000000000000000000000000000000000000000000081526004016113e9919061294f565b60405180910390fd5b6113fb81611e7f565b50565b611406611fca565b73ffffffffffffffffffffffffffffffffffffffff166114246107dd565b73ffffffffffffffffffffffffffffffffffffffff161461148357611447611fca565b6040517f118cdaa700000000000000000000000000000000000000000000000000000000815260040161147a919061294f565b60405180910390fd5b565b600061148f6121ff565b905060028160000154036114cf576040517f3ee5aeb500000000000000000000000000000000000000000000000000000000815260040160405180910390fd5b6002816000018190555050565b6114e4611fe6565b6114ec611fca565b73ffffffffffffffffffffffffffffffffffffffff16600260009054906101000a900473ffffffffffffffffffffffffffffffffffffffff1673ffffffffffffffffffffffffffffffffffffffff16636352211e836040518263ffffffff1660e01b815260040161155d91906126ae565b602060405180830381865afa15801561157a573d6000803e3d6000fd5b505050506040513d601f19601f8201168201806040525081019061159e91906134e5565b73ffffffffffffffffffffffffffffffffffffffff16146115f4576040517f08c379a00000000000000000000000000000000000000000000000000000000081526004016115eb90613584565b60405180910390fd5b6000600260009054906101000a900473ffffffffffffffffffffffffffffffffffffffff1673ffffffffffffffffffffffffffffffffffffffff1663eb02c301836040518263ffffffff1660e01b815260040161165191906126ae565b60a060405180830381865afa15801561166e573d6000803e3d6000fd5b505050506040513d601f19601f82011682018060405250810190611692919061365f565b90506000808260200151815481106116ad576116ac613018565b5b90600052602060002090600402016040518060c0016040529081600082015481526020016001820160009054906101000a900473ffffffffffffffffffffffffffffffffffffffff1673ffffffffffffffffffffffffffffffffffffffff1673ffffffffffffffffffffffffffffffffffffffff1681526020016002820160009054906101000a900473ffffffffffffffffffffffffffffffffffffffff1673ffffffffffffffffffffffffffffffffffffffff1673ffffffffffffffffffffffffffffffffffffffff1681526020016002820160149054906101000a900467ffffffffffffffff1667ffffffffffffffff1667ffffffffffffffff16815260200160028201601c9054906101000a900463ffffffff1663ffffffff1663ffffffff1681526020016003820160009054906101000a900463ffffffff1663ffffffff1663ffffffff16815250509050806080015163ffffffff16826060015167ffffffffffffffff1610611856576040517f08c379a000000000000000000000000000000000000000000000000000000000815260040161184d906136d8565b60405180910390fd5b816040015167ffffffffffffffff164210156118a7576040517f08c379a000000000000000000000000000000000000000000000000000000000815260040161189e9061376a565b60405180910390fd5b6000826040015167ffffffffffffffff16426118c39190612ed2565b90506000826060015167ffffffffffffffff16826118e191906137b9565b9050836060015167ffffffffffffffff168111611933576040517f08c379a000000000000000000000000000000000000000000000000000000000815260040161192a90613836565b60405180910390fd5b6000846060015167ffffffffffffffff168261194f9190612ed2565b90506000600160009054906101000a900473ffffffffffffffffffffffffffffffffffffffff1673ffffffffffffffffffffffffffffffffffffffff1663ec0c1159866020015187608001518860a001518a600001516040518563ffffffff1660e01b81526004016119c49493929190613856565b602060405180830381865afa1580156119e1573d6000803e3d6000fd5b505050506040513d601f19601f82011682018060405250810190611a059190613242565b82611a10919061389b565b9050846080015163ffffffff168310611ab257846020015173ffffffffffffffffffffffffffffffffffffffff16632e1a7d4d886040518263ffffffff1660e01b8152600401611a6091906126ae565b600060405180830381600087803b158015611a7a57600080fd5b505af1158015611a8e573d6000803e3d6000fd5b50505050856000015181611aa291906138dd565b9050846080015163ffffffff1692505b80856040015173ffffffffffffffffffffffffffffffffffffffff166370a08231306040518263ffffffff1660e01b8152600401611af0919061294f565b602060405180830381865afa158015611b0d573d6000803e3d6000fd5b505050506040513d601f19601f82011682018060405250810190611b319190613242565b1015611b72576040517f08c379a0000000000000000000000000000000000000000000000000000000008152600401611b699061395d565b60405180910390fd5b611ba8611b7d611fca565b82876040015173ffffffffffffffffffffffffffffffffffffffff166122279092919063ffffffff16565b600260009054906101000a900473ffffffffffffffffffffffffffffffffffffffff1673ffffffffffffffffffffffffffffffffffffffff1663ca3cf06e88856040518363ffffffff1660e01b8152600401611c0592919061397d565b600060405180830381600087803b158015611c1f57600080fd5b505af1158015611c33573d6000803e3d6000fd5b50505050846080015163ffffffff168310611d0d57600260009054906101000a900473ffffffffffffffffffffffffffffffffffffffff1673ffffffffffffffffffffffffffffffffffffffff166342966c68886040518263ffffffff1660e01b8152600401611ca391906126ae565b600060405180830381600087803b158015611cbd57600080fd5b505af1158015611cd1573d6000803e3d6000fd5b505050507f4e70a604b23a8edee2b1d0a656e9b9c00b73ad8bb1afc2c59381ee9f69197de787604051611d0491906126ae565b60405180910390a15b7fee3a40aa442ea522b4c220888999101afd18073b0a2b0cf43096d3c96844e223878285611d39611fca565b604051611d4994939291906139a6565b60405180910390a150505050505050565b6000611d646121ff565b90506001816000018190555050565b611d7b6122ad565b6000611d85611e57565b905060008160000160006101000a81548160ff0219169083151502179055507f5db9ee0a495bf2e6ff9c91a7834c1ba4fdd244a5e8aa4e537bd38aeae4b073aa611dcd611fca565b604051611dda919061294f565b60405180910390a150565b611ded611fe6565b6000611df7611e57565b905060018160000160006101000a81548160ff0219169083151502179055507f62e78cea01bee320cd4e420270b5ea74000d11b0c9f74754ebdbfc544b05a258611e3f611fca565b604051611e4c919061294f565b60405180910390a150565b60007fcd5ed15c6e187e77e9aee88184c21f4f2182ab5827cb3b7e07fbedcd63f03300905090565b6000611e89611f56565b905060008160000160009054906101000a900473ffffffffffffffffffffffffffffffffffffffff169050828260000160006101000a81548173ffffffffffffffffffffffffffffffffffffffff021916908373ffffffffffffffffffffffffffffffffffffffff1602179055508273ffffffffffffffffffffffffffffffffffffffff168173ffffffffffffffffffffffffffffffffffffffff167f8be0079c531659141344cd1fd0a4f28419497f9722a3daafe3b4186f6b6457e060405160405180910390a3505050565b60007f9016d09d72d40fdae2fd8ceac6b6234c7706214fd39c1cd1e609a0528c199300905090565b60007ff0c57e16840df040f15088dc2f81fe391c3923bec73e23a9662efc9c229c6a00905090565b611fae6122ed565b611fb661232d565b565b611fc06122ed565b611fc861234e565b565b600033905090565b611fda6122ed565b611fe381612382565b50565b611fee6106b7565b15612025576040517fd93c066500000000000000000000000000000000000000000000000000000000815260040160405180910390fd5b565b6120aa846323b872dd60e01b858585604051602401612048939291906139eb565b604051602081830303815290604052907bffffffffffffffffffffffffffffffffffffffffffffffffffffffff19166020820180517bffffffffffffffffffffffffffffffffffffffffffffffffffffffff8381831617835250505050612408565b50505050565b600081148061213a575060008373ffffffffffffffffffffffffffffffffffffffff1663dd62ed3e30856040518363ffffffff1660e01b81526004016120f7929190613204565b602060405180830381865afa158015612114573d6000803e3d6000fd5b505050506040513d601f19601f820116820180604052508101906121389190613242565b145b612179576040517f08c379a000000000000000000000000000000000000000000000000000000000815260040161217090613a94565b60405180910390fd5b6121fa8363095ea7b360e01b8484604051602401612198929190613ab4565b604051602081830303815290604052907bffffffffffffffffffffffffffffffffffffffffffffffffffffffff19166020820180517bffffffffffffffffffffffffffffffffffffffffffffffffffffffff8381831617835250505050612408565b505050565b60007f9b779b17422d0df92223018b32b4d1fa46e071723d6817e2486d003becc55f00905090565b6122a88363a9059cbb60e01b8484604051602401612246929190613ab4565b604051602081830303815290604052907bffffffffffffffffffffffffffffffffffffffffffffffffffffffff19166020820180517bffffffffffffffffffffffffffffffffffffffffffffffffffffffff8381831617835250505050612408565b505050565b6122b56106b7565b6122eb576040517f8dfc202b00000000000000000000000000000000000000000000000000000000815260040160405180910390fd5b565b6122f56124cf565b61232b576040517fd7e6bcf800000000000000000000000000000000000000000000000000000000815260040160405180910390fd5b565b6123356122ed565b600061233f6121ff565b90506001816000018190555050565b6123566122ed565b6000612360611e57565b905060008160000160006101000a81548160ff02191690831515021790555050565b61238a6122ed565b600073ffffffffffffffffffffffffffffffffffffffff168173ffffffffffffffffffffffffffffffffffffffff16036123fc5760006040517f1e4fbdf70000000000000000000000000000000000000000000000000000000081526004016123f3919061294f565b60405180910390fd5b61240581611e7f565b50565b600061246a826040518060400160405280602081526020017f5361666545524332303a206c6f772d6c6576656c2063616c6c206661696c65648152508573ffffffffffffffffffffffffffffffffffffffff166124ef9092919063ffffffff16565b90506000815111156124ca578080602001905181019061248a9190613b09565b6124c9576040517f08c379a00000000000000000000000000000000000000000000000000000000081526004016124c090613ba8565b60405180910390fd5b5b505050565b60006124d9611f7e565b60000160089054906101000a900460ff16905090565b60606124fe8484600085612507565b90509392505050565b60608247101561254c576040517f08c379a000000000000000000000000000000000000000000000000000000000815260040161254390613c3a565b60405180910390fd5b6125558561261b565b612594576040517f08c379a000000000000000000000000000000000000000000000000000000000815260040161258b90613ca6565b60405180910390fd5b6000808673ffffffffffffffffffffffffffffffffffffffff1685876040516125bd9190613d37565b60006040518083038185875af1925050503d80600081146125fa576040519150601f19603f3d011682016040523d82523d6000602084013e6125ff565b606091505b509150915061260f82828661262e565b92505050949350505050565b600080823b905060008111915050919050565b6060831561263e5782905061268e565b6000835111156126515782518084602001fd5b816040517f08c379a00000000000000000000000000000000000000000000000000000000081526004016126859190613d92565b60405180910390fd5b9392505050565b6000819050919050565b6126a881612695565b82525050565b60006020820190506126c3600083018461269f565b92915050565b6000604051905090565b600080fd5b600080fd5b6126e681612695565b81146126f157600080fd5b50565b600081359050612703816126dd565b92915050565b600073ffffffffffffffffffffffffffffffffffffffff82169050919050565b600061273482612709565b9050919050565b61274481612729565b811461274f57600080fd5b50565b6000813590506127618161273b565b92915050565b600067ffffffffffffffff82169050919050565b61278481612767565b811461278f57600080fd5b50565b6000813590506127a18161277b565b92915050565b600063ffffffff82169050919050565b6127c0816127a7565b81146127cb57600080fd5b50565b6000813590506127dd816127b7565b92915050565b600080600080600060a086880312156127ff576127fe6126d3565b5b600061280d888289016126f4565b955050602061281e88828901612752565b945050604061282f88828901612792565b9350506060612840888289016127ce565b9250506080612851888289016127ce565b9150509295509295909350565b600060208284031215612874576128736126d3565b5b6000612882848285016126f4565b91505092915050565b61289481612729565b82525050565b6128a381612767565b82525050565b6128b2816127a7565b82525050565b600060c0820190506128cd600083018961269f565b6128da602083018861288b565b6128e7604083018761288b565b6128f4606083018661289a565b61290160808301856128a9565b61290e60a08301846128a9565b979650505050505050565b60008115159050919050565b61292e81612919565b82525050565b60006020820190506129496000830184612925565b92915050565b6000602082019050612964600083018461288b565b92915050565b6000819050919050565b600061298f61298a61298584612709565b61296a565b612709565b9050919050565b60006129a182612974565b9050919050565b60006129b382612996565b9050919050565b6129c3816129a8565b82525050565b60006020820190506129de60008301846129ba565b92915050565b600080fd5b6000601f19601f8301169050919050565b7f4e487b7100000000000000000000000000000000000000000000000000000000600052604160045260246000fd5b612a32826129e9565b810181811067ffffffffffffffff82111715612a5157612a506129fa565b5b80604052505050565b6000612a646126c9565b9050612a708282612a29565b919050565b600067ffffffffffffffff821115612a9057612a8f6129fa565b5b602082029050602081019050919050565b600080fd5b6000612ab9612ab484612a75565b612a5a565b90508083825260208201905060208402830185811115612adc57612adb612aa1565b5b835b81811015612b055780612af188826126f4565b845260208401935050602081019050612ade565b5050509392505050565b600082601f830112612b2457612b236129e4565b5b8135612b34848260208601612aa6565b91505092915050565b600060208284031215612b5357612b526126d3565b5b600082013567ffffffffffffffff811115612b7157612b706126d8565b5b612b7d84828501612b0f565b91505092915050565b6000612b9182612729565b9050919050565b612ba181612b86565b8114612bac57600080fd5b50565b600081359050612bbe81612b98565b92915050565b6000612bcf82612729565b9050919050565b612bdf81612bc4565b8114612bea57600080fd5b50565b600081359050612bfc81612bd6565b92915050565b600080600060608486031215612c1b57612c1a6126d3565b5b6000612c2986828701612baf565b9350506020612c3a86828701612bed565b9250506040612c4b86828701612752565b9150509250925092565b600060ff82169050919050565b612c6b81612c55565b8114612c7657600080fd5b50565b600081359050612c8881612c62565b92915050565b6000819050919050565b612ca181612c8e565b8114612cac57600080fd5b50565b600081359050612cbe81612c98565b92915050565b60008060008060008060c08789031215612ce157612ce06126d3565b5b6000612cef89828a016126f4565b9650506020612d0089828a016127ce565b9550506040612d1189828a016126f4565b9450506060612d2289828a01612c79565b9350506080612d3389828a01612caf565b92505060a0612d4489828a01612caf565b9150509295509295509295565b60008060008060008060c08789031215612d6e57612d6d6126d3565b5b6000612d7c89828a016127ce565b9650506020612d8d89828a016126f4565b9550506040612d9e89828a01612752565b9450506060612daf89828a01612792565b9350506080612dc089828a016127ce565b92505060a0612dd189828a016127ce565b9150509295509295509295565b600060208284031215612df457612df36126d3565b5b6000612e02848285016127ce565b91505092915050565b600060208284031215612e2157612e206126d3565b5b6000612e2f84828501612752565b91505092915050565b6000612e4382612729565b9050919050565b612e5381612e38565b8114612e5e57600080fd5b50565b600081519050612e7081612e4a565b92915050565b600060208284031215612e8c57612e8b6126d3565b5b6000612e9a84828501612e61565b91505092915050565b7f4e487b7100000000000000000000000000000000000000000000000000000000600052601160045260246000fd5b6000612edd82612695565b9150612ee883612695565b9250828203905081811115612f0057612eff612ea3565b5b92915050565b600060e082019050612f1b600083018a61269f565b612f28602083018961269f565b612f35604083018861288b565b612f42606083018761288b565b612f4f608083018661289a565b612f5c60a08301856128a9565b612f6960c08301846128a9565b98975050505050505050565b600082825260208201905092915050565b7f43616e6e6f74207769746864726177206d6f7265207468616e203820746f6b6560008201527f6e7320617420612074696d652e00000000000000000000000000000000000000602082015250565b6000612fe2602d83612f75565b9150612fed82612f86565b604082019050919050565b6000602082019050818103600083015261301181612fd5565b9050919050565b7f4e487b7100000000000000000000000000000000000000000000000000000000600052603260045260246000fd5b600061305282612695565b91507fffffffffffffffffffffffffffffffffffffffffffffffffffffffffffffffff820361308457613083612ea3565b5b600182019050919050565b6000819050919050565b60006130b46130af6130aa8461308f565b61296a565b612767565b9050919050565b6130c481613099565b82525050565b60006020820190506130df60008301846130bb565b92915050565b7f596f7520617474656d7074656420746f206465706f7369746564206e6f74686960008201527f6e672e0000000000000000000000000000000000000000000000000000000000602082015250565b6000613141602383612f75565b915061314c826130e5565b604082019050919050565b6000602082019050818103600083015261317081613134565b9050919050565b61318081612c55565b82525050565b61318f81612c8e565b82525050565b600060e0820190506131aa600083018a61288b565b6131b7602083018961288b565b6131c4604083018861269f565b6131d1606083018761269f565b6131de6080830186613177565b6131eb60a0830185613186565b6131f860c0830184613186565b98975050505050505050565b6000604082019050613219600083018561288b565b613226602083018461288b565b9392505050565b60008151905061323c816126dd565b92915050565b600060208284031215613258576132576126d3565b5b60006132668482850161322d565b91505092915050565b61327881612695565b82525050565b61328781612767565b82525050565b613296816127a7565b82525050565b60a0820160008201516132b2600085018261326f565b5060208201516132c5602085018261326f565b5060408201516132d8604085018261327e565b5060608201516132eb606085018261327e565b5060808201516132fe608085018261328d565b50505050565b600060c082019050613319600083018561288b565b613326602083018461329c565b9392505050565b600061334861334361333e846127a7565b61296a565b612695565b9050919050565b6133588161332d565b82525050565b600060a082019050613373600083018861288b565b613380602083018761288b565b61338d604083018661269f565b61339a606083018561269f565b6133a7608083018461334f565b9695505050505050565b60006040820190506133c6600083018561269f565b6133d3602083018461269f565b9392505050565b7f496e646578206f7574206f6620626f756e647300000000000000000000000000600082015250565b6000613410601383612f75565b915061341b826133da565b602082019050919050565b6000602082019050818103600083015261343f81613403565b9050919050565b600060e08201905061345b600083018a61334f565b613468602083018961269f565b613475604083018861288b565b613482606083018761288b565b61348f608083018661289a565b61349c60a08301856128a9565b6134a960c08301846128a9565b98975050505050505050565b60006020820190506134ca600083018461334f565b92915050565b6000815190506134df8161273b565b92915050565b6000602082840312156134fb576134fa6126d3565b5b6000613509848285016134d0565b91505092915050565b7f596f7520646f206e6f7420686176652061636365737320746f2077697468647260008201527f61772077697468207468697320546f6b656e4944000000000000000000000000602082015250565b600061356e603483612f75565b915061357982613512565b604082019050919050565b6000602082019050818103600083015261359d81613561565b9050919050565b600080fd5b6000815190506135b88161277b565b92915050565b6000815190506135cd816127b7565b92915050565b600060a082840312156135e9576135e86135a4565b5b6135f360a0612a5a565b905060006136038482850161322d565b60008301525060206136178482850161322d565b602083015250604061362b848285016135a9565b604083015250606061363f848285016135a9565b6060830152506080613653848285016135be565b60808301525092915050565b600060a08284031215613675576136746126d3565b5b6000613683848285016135d3565b91505092915050565b7f596f7520686176652077697468647261776e20616c6c20796f752063616e2e00600082015250565b60006136c2601f83612f75565b91506136cd8261368c565b602082019050919050565b600060208201905081810360008301526136f1816136b5565b9050919050565b7f43757272656e742074696d65206973206265666f72652074686520726174652060008201527f74696d6500000000000000000000000000000000000000000000000000000000602082015250565b6000613754602483612f75565b915061375f826136f8565b604082019050919050565b6000602082019050818103600083015261378381613747565b9050919050565b7f4e487b7100000000000000000000000000000000000000000000000000000000600052601260045260246000fd5b60006137c482612695565b91506137cf83612695565b9250826137df576137de61378a565b5b828204905092915050565b7f546f6f204561726c792100000000000000000000000000000000000000000000600082015250565b6000613820600a83612f75565b915061382b826137ea565b602082019050919050565b6000602082019050818103600083015261384f81613813565b9050919050565b600060808201905061386b600083018761288b565b61387860208301866128a9565b61388560408301856128a9565b613892606083018461269f565b95945050505050565b60006138a682612695565b91506138b183612695565b92508282026138bf81612695565b915082820484148315176138d6576138d5612ea3565b5b5092915050565b60006138e882612695565b91506138f383612695565b925082820190508082111561390b5761390a612ea3565b5b92915050565b7f496e73756666696369656e742062616c616e6365210000000000000000000000600082015250565b6000613947601583612f75565b915061395282613911565b602082019050919050565b600060208201905081810360008301526139768161393a565b9050919050565b6000604082019050613992600083018561269f565b61399f60208301846128a9565b9392505050565b60006080820190506139bb600083018761269f565b6139c8602083018661269f565b6139d5604083018561269f565b6139e2606083018461288b565b95945050505050565b6000606082019050613a00600083018661288b565b613a0d602083018561288b565b613a1a604083018461269f565b949350505050565b7f5361666545524332303a20617070726f76652066726f6d206e6f6e2d7a65726f60008201527f20746f206e6f6e2d7a65726f20616c6c6f77616e636500000000000000000000602082015250565b6000613a7e603683612f75565b9150613a8982613a22565b604082019050919050565b60006020820190508181036000830152613aad81613a71565b9050919050565b6000604082019050613ac9600083018561288b565b613ad6602083018461269f565b9392505050565b613ae681612919565b8114613af157600080fd5b50565b600081519050613b0381613add565b92915050565b600060208284031215613b1f57613b1e6126d3565b5b6000613b2d84828501613af4565b91505092915050565b7f5361666545524332303a204552433230206f7065726174696f6e20646964206e60008201527f6f74207375636365656400000000000000000000000000000000000000000000602082015250565b6000613b92602a83612f75565b9150613b9d82613b36565b604082019050919050565b60006020820190508181036000830152613bc181613b85565b9050919050565b7f416464726573733a20696e73756666696369656e742062616c616e636520666f60008201527f722063616c6c0000000000000000000000000000000000000000000000000000602082015250565b6000613c24602683612f75565b9150613c2f82613bc8565b604082019050919050565b60006020820190508181036000830152613c5381613c17565b9050919050565b7f416464726573733a2063616c6c20746f206e6f6e2d636f6e7472616374000000600082015250565b6000613c90601d83612f75565b9150613c9b82613c5a565b602082019050919050565b60006020820190508181036000830152613cbf81613c83565b9050919050565b600081519050919050565b600081905092915050565b60005b83811015613cfa578082015181840152602081019050613cdf565b60008484015250505050565b6000613d1182613cc6565b613d1b8185613cd1565b9350613d2b818560208601613cdc565b80840191505092915050565b6000613d438284613d06565b915081905092915050565b600081519050919050565b6000613d6482613d4e565b613d6e8185612f75565b9350613d7e818560208601613cdc565b613d87816129e9565b840191505092915050565b60006020820190508181036000830152613dac8184613d59565b90509291505056fea2646970667358221220045f6a3ac3baf7c432d9267b6efd3c8036bdf930688ff1a51b718752756c022764736f6c63430008140033",
  "linkReferences": {},
  "deployedLinkReferences": {}
}